{
  "contractName": "TodoList",
  "abi": [
    {
      "constant": true,
      "inputs": [],
      "name": "taskCount",
      "outputs": [
        {
          "name": "",
          "type": "uint256"
        }
      ],
      "payable": false,
      "stateMutability": "view",
      "type": "function",
      "signature": "0xb6cb58a5"
    }
  ],
  "bytecode": "0x608060405260008055348015601357600080fd5b506099806100226000396000f3fe608060405260043610603e5763ffffffff7c0100000000000000000000000000000000000000000000000000000000600035041663b6cb58a581146043575b600080fd5b348015604e57600080fd5b5060556067565b60408051918252519081900360200190f35b6000548156fea165627a7a72305820ccc1a341f048e31477075a54ac2e4e630669b9d68ed69f2700fd71a86afe9c430029",
  "source": "pragma solidity ^0.5.0;\r\n\r\ncontract TodoList {\r\n\r\n    // Uint => unsigned int\r\n    // public keyboard, to use the variable like a function (ex: this.taskCount() = 0)\r\n\r\n    uint public taskCount = 0;\r\n\r\n\r\n}",
  "sourcePath": "D:/BotDiscord/File Sfusi/GITHUB CLONE/Blockchain To do list/contracts/TodoList.sol",
  "compiler": {
    "name": "solc",
    "version": "0.5.0+commit.1d4f565a.Emscripten.clang"
  },
  "schemaVersion": "3.0.1",
  "updatedAt": "2020-12-16T15:23:09.703Z",
  "devdoc": {
    "methods": {}
  },
  "userdoc": {
    "methods": {}
  }
}